{
  "contractName": "scaleup",
  "abi": [
    {
      "inputs": [],
      "payable": false,
      "stateMutability": "nonpayable",
      "type": "constructor"
    },
    {
      "constant": false,
      "inputs": [
        {
          "internalType": "string",
          "name": "_material",
          "type": "string"
        }
      ],
      "name": "addMaterial",
      "outputs": [],
      "payable": false,
      "stateMutability": "nonpayable",
      "type": "function"
    },
    {
      "constant": false,
      "inputs": [
        {
          "internalType": "string",
          "name": "_material",
          "type": "string"
        },
        {
          "internalType": "string",
          "name": "_name",
          "type": "string"
        },
        {
          "internalType": "string",
          "name": "_quality",
          "type": "string"
        },
        {
          "internalType": "uint256",
          "name": "_quantity",
          "type": "uint256"
        },
        {
          "internalType": "uint256",
          "name": "_unitcost",
          "type": "uint256"
        }
      ],
      "name": "addOption",
      "outputs": [],
      "payable": false,
      "stateMutability": "nonpayable",
      "type": "function"
    },
    {
      "constant": true,
      "inputs": [],
      "name": "getAllMaterials",
      "outputs": [
        {
          "internalType": "string[]",
          "name": "",
          "type": "string[]"
        }
      ],
      "payable": false,
      "stateMutability": "view",
      "type": "function"
    },
    {
      "constant": true,
      "inputs": [
        {
          "internalType": "string",
          "name": "_material",
          "type": "string"
        }
      ],
      "name": "getOptionsOfMaterial",
      "outputs": [
        {
          "components": [
            {
              "internalType": "uint256",
              "name": "id",
              "type": "uint256"
            },
            {
              "internalType": "string",
              "name": "name",
              "type": "string"
            },
            {
              "internalType": "string",
              "name": "quality",
              "type": "string"
            },
            {
              "internalType": "uint256",
              "name": "quantity",
              "type": "uint256"
            },
            {
              "internalType": "uint256",
              "name": "unitcost",
              "type": "uint256"
            }
          ],
          "internalType": "struct scaleup.option[]",
          "name": "",
          "type": "tuple[]"
        }
      ],
      "payable": false,
      "stateMutability": "view",
      "type": "function"
    }
  ],
  "bytecode": "0x608060405234801561001057600080fd5b50336000806101000a81548173ffffffffffffffffffffffffffffffffffffffff021916908373ffffffffffffffffffffffffffffffffffffffff160217905550610ef9806100606000396000f3fe608060405234801561001057600080fd5b506004361061004c5760003560e01c806369a1f97c14610051578063765a521b1461006d5780638c9f75121461008b57806392395ea3146100bb575b600080fd5b61006b600480360361006691908101906109b2565b6100d7565b005b61007561044a565b6040516100829190610cd0565b60405180910390f35b6100a560048036036100a09190810190610971565b610533565b6040516100b29190610cf2565b60405180910390f35b6100d560048036036100d09190810190610971565b610712565b005b6000809054906101000a900473ffffffffffffffffffffffffffffffffffffffff1673ffffffffffffffffffffffffffffffffffffffff163373ffffffffffffffffffffffffffffffffffffffff1614610166576040517f08c379a000000000000000000000000000000000000000000000000000000000815260040161015d90610d14565b60405180910390fd5b60606002866040516101789190610cb9565b9081526020016040518091039020805480602002602001604051908101604052809291908181526020016000905b8282101561033a57838290600052602060002090600502016040518060a001604052908160008201548152602001600182018054600181600116156101000203166002900480601f01602080910402602001604051908101604052809291908181526020018280546001816001161561010002031660029004801561026c5780601f106102415761010080835404028352916020019161026c565b820191906000526020600020905b81548152906001019060200180831161024f57829003601f168201915b50505050508152602001600282018054600181600116156101000203166002900480601f01602080910402602001604051908101604052809291908181526020018280546001816001161561010002031660029004801561030e5780601f106102e35761010080835404028352916020019161030e565b820191906000526020600020905b8154815290600101906020018083116102f157829003601f168201915b5050505050815260200160038201548152602001600482015481525050815260200190600101906101a6565b505050509050600080825114156103545760019050610376565b60018260018451038151811061036657fe5b6020026020010151600001510190505b6002876040516103869190610cb9565b90815260200160405180910390206040518060a00160405280838152602001888152602001878152602001868152602001858152509080600181540180825580915050906001820390600052602060002090600502016000909192909190915060008201518160000155602082015181600101908051906020019061040c9291906107e3565b5060408201518160020190805190602001906104299291906107e3565b50606082015181600301556080820151816004015550505050505050505050565b60606001805480602002602001604051908101604052809291908181526020016000905b8282101561052a578382906000526020600020018054600181600116156101000203166002900480601f0160208091040260200160405190810160405280929190818152602001828054600181600116156101000203166002900480156105165780601f106104eb57610100808354040283529160200191610516565b820191906000526020600020905b8154815290600101906020018083116104f957829003601f168201915b50505050508152602001906001019061046e565b50505050905090565b60606002826040516105459190610cb9565b9081526020016040518091039020805480602002602001604051908101604052809291908181526020016000905b8282101561070757838290600052602060002090600502016040518060a001604052908160008201548152602001600182018054600181600116156101000203166002900480601f0160208091040260200160405190810160405280929190818152602001828054600181600116156101000203166002900480156106395780601f1061060e57610100808354040283529160200191610639565b820191906000526020600020905b81548152906001019060200180831161061c57829003601f168201915b50505050508152602001600282018054600181600116156101000203166002900480601f0160208091040260200160405190810160405280929190818152602001828054600181600116156101000203166002900480156106db5780601f106106b0576101008083540402835291602001916106db565b820191906000526020600020905b8154815290600101906020018083116106be57829003601f168201915b505050505081526020016003820154815260200160048201548152505081526020019060010190610573565b505050509050919050565b6000809054906101000a900473ffffffffffffffffffffffffffffffffffffffff1673ffffffffffffffffffffffffffffffffffffffff163373ffffffffffffffffffffffffffffffffffffffff16146107a1576040517f08c379a000000000000000000000000000000000000000000000000000000000815260040161079890610d14565b60405180910390fd5b60018190806001815401808255809150509060018203906000526020600020016000909192909190915090805190602001906107de929190610863565b505050565b828054600181600116156101000203166002900490600052602060002090601f016020900481019282601f1061082457805160ff1916838001178555610852565b82800160010185558215610852579182015b82811115610851578251825591602001919060010190610836565b5b50905061085f91906108e3565b5090565b828054600181600116156101000203166002900490600052602060002090601f016020900481019282601f106108a457805160ff19168380011785556108d2565b828001600101855582156108d2579182015b828111156108d15782518255916020019190600101906108b6565b5b5090506108df91906108e3565b5090565b61090591905b808211156109015760008160009055506001016108e9565b5090565b90565b600082601f83011261091957600080fd5b813561092c61092782610d61565b610d34565b9150808252602083016020830185838301111561094857600080fd5b610953838284610e4c565b50505092915050565b60008135905061096b81610e9f565b92915050565b60006020828403121561098357600080fd5b600082013567ffffffffffffffff81111561099d57600080fd5b6109a984828501610908565b91505092915050565b600080600080600060a086880312156109ca57600080fd5b600086013567ffffffffffffffff8111156109e457600080fd5b6109f088828901610908565b955050602086013567ffffffffffffffff811115610a0d57600080fd5b610a1988828901610908565b945050604086013567ffffffffffffffff811115610a3657600080fd5b610a4288828901610908565b9350506060610a538882890161095c565b9250506080610a648882890161095c565b9150509295509295909350565b6000610a7d8383610bb4565b905092915050565b6000610a918383610c2d565b905092915050565b6000610aa482610dad565b610aae8185610df3565b935083602082028501610ac085610d8d565b8060005b85811015610afc5784840389528151610add8582610a71565b9450610ae883610dd9565b925060208a01995050600181019050610ac4565b50829750879550505050505092915050565b6000610b1982610db8565b610b238185610e04565b935083602082028501610b3585610d9d565b8060005b85811015610b715784840389528151610b528582610a85565b9450610b5d83610de6565b925060208a01995050600181019050610b39565b50829750879550505050505092915050565b6000610b8e82610dce565b610b988185610e37565b9350610ba8818560208601610e5b565b80840191505092915050565b6000610bbf82610dc3565b610bc98185610e15565b9350610bd9818560208601610e5b565b610be281610e8e565b840191505092915050565b6000610bfa601383610e26565b91507f596f7520617265206e6f7420616c6c6f776564000000000000000000000000006000830152602082019050919050565b600060a083016000830151610c456000860182610caa565b5060208301518482036020860152610c5d8282610bb4565b91505060408301518482036040860152610c778282610bb4565b9150506060830151610c8c6060860182610caa565b506080830151610c9f6080860182610caa565b508091505092915050565b610cb381610e42565b82525050565b6000610cc58284610b83565b915081905092915050565b60006020820190508181036000830152610cea8184610a99565b905092915050565b60006020820190508181036000830152610d0c8184610b0e565b905092915050565b60006020820190508181036000830152610d2d81610bed565b9050919050565b6000604051905081810181811067ffffffffffffffff82111715610d5757600080fd5b8060405250919050565b600067ffffffffffffffff821115610d7857600080fd5b601f19601f8301169050602081019050919050565b6000819050602082019050919050565b6000819050602082019050919050565b600081519050919050565b600081519050919050565b600081519050919050565b600081519050919050565b6000602082019050919050565b6000602082019050919050565b600082825260208201905092915050565b600082825260208201905092915050565b600082825260208201905092915050565b600082825260208201905092915050565b600081905092915050565b6000819050919050565b82818337600083830152505050565b60005b83811015610e79578082015181840152602081019050610e5e565b83811115610e88576000848401525b50505050565b6000601f19601f8301169050919050565b610ea881610e42565b8114610eb357600080fd5b5056fea365627a7a723158208728782ef301a366dc8af8f5268decae65dd12f81bb06402d77b076107f6adbb6c6578706572696d656e74616cf564736f6c63430005100040",
  "source": "pragma solidity ^0.5.0;\npragma experimental ABIEncoderV2;\n\n\n/**\n* @title cloud\n* @author Abhishek Vispute\n*/\ncontract scaleup {\n \n    address owner;\n    constructor()public{\n        owner = msg.sender;\n    }\n    modifier onlyowner\n    {\n         require(msg.sender==owner,\"You are not allowed\");\n         _;\n    }\n    \n  \n \n    string [] material;\n  \n    struct option {\n      uint256 id;\n      string name;\n      string quality;\n      uint256 quantity;\n      uint256 unitcost;\n    }\n  \n    mapping(string => option []) material_options;\n  \n\n   function addMaterial(string memory _material) onlyowner public \n   {\n    material.push(_material);\n   }\n   \n   function addOption(string memory _material, string memory _name, string memory  _quality, uint256 _quantity, uint256 _unitcost ) onlyowner public \n   {\n    option [] memory prevOptions = material_options[_material];\n    uint256 newid;\n    if(prevOptions.length==0)\n    {\n        newid = 1;\n    }\n    else\n    {\n        newid = prevOptions[prevOptions.length-1].id +1;\n    }\n  \n  \n    \n    material_options[_material].push(option({\n        id : newid,\n        name: _name,\n        quality : _quality,\n        quantity : _quantity,\n        unitcost : _unitcost\n    }));\n   }\n   \n   function getAllMaterials() public view returns (string [] memory)\n   {\n       return material;\n   }\n   \n   function getOptionsOfMaterial(string memory _material) public view returns (option[] memory)\n   {\n       return material_options[_material];\n   }\n   \n  \n}",
  "sourcePath": "C:/Users/ASUS/Desktop/ScaleUp/contracts/ScaleUp.sol",
  "compiler": {
    "name": "solc",
    "version": "0.5.16+commit.9c3226ce.Emscripten.clang"
  },
  "schemaVersion": "3.0.22",
  "updatedAt": "2020-08-01T12:11:36.673Z",
  "networkType": "ethereum",
  "devdoc": {
    "author": "Abhishek Vispute",
    "methods": {},
    "title": "cloud"
  },
  "userdoc": {
    "methods": {}
  }
}