{
  "contractName": "scaleup",
  "abi": [
    {
      "inputs": [],
      "payable": false,
      "stateMutability": "nonpayable",
      "type": "constructor"
    },
    {
      "constant": false,
      "inputs": [
        {
          "internalType": "string",
          "name": "_material",
          "type": "string"
        }
      ],
      "name": "addMaterial",
      "outputs": [],
      "payable": false,
      "stateMutability": "nonpayable",
      "type": "function"
    },
    {
      "constant": false,
      "inputs": [
        {
          "internalType": "string",
          "name": "_material",
          "type": "string"
        },
        {
          "internalType": "string",
          "name": "_name",
          "type": "string"
        },
        {
          "internalType": "string",
          "name": "_quality",
          "type": "string"
        },
        {
          "internalType": "uint256",
          "name": "_quantity",
          "type": "uint256"
        },
        {
          "internalType": "uint256",
          "name": "_unitcost",
          "type": "uint256"
        }
      ],
      "name": "addOption",
      "outputs": [],
      "payable": false,
      "stateMutability": "nonpayable",
      "type": "function"
    },
    {
      "constant": true,
      "inputs": [],
      "name": "getAllMaterials",
      "outputs": [
        {
          "internalType": "string[]",
          "name": "",
          "type": "string[]"
        }
      ],
      "payable": false,
      "stateMutability": "view",
      "type": "function"
    },
    {
      "constant": true,
      "inputs": [
        {
          "internalType": "string",
          "name": "_material",
          "type": "string"
        }
      ],
      "name": "getOptionsOfMaterial",
      "outputs": [
        {
          "components": [
            {
              "internalType": "uint256",
              "name": "id",
              "type": "uint256"
            },
            {
              "internalType": "string",
              "name": "name",
              "type": "string"
            },
            {
              "internalType": "string",
              "name": "quality",
              "type": "string"
            },
            {
              "internalType": "uint256",
              "name": "quantity",
              "type": "uint256"
            },
            {
              "internalType": "uint256",
              "name": "unitcost",
              "type": "uint256"
            },
            {
              "internalType": "uint256",
              "name": "currentReq",
              "type": "uint256"
            }
          ],
          "internalType": "struct scaleup.option[]",
          "name": "",
          "type": "tuple[]"
        }
      ],
      "payable": false,
      "stateMutability": "view",
      "type": "function"
    },
    {
      "constant": false,
      "inputs": [
        {
          "internalType": "string",
          "name": "_material",
          "type": "string"
        },
        {
          "internalType": "uint256",
          "name": "_id",
          "type": "uint256"
        },
        {
          "internalType": "uint256",
          "name": "_req",
          "type": "uint256"
        }
      ],
      "name": "placeOrder",
      "outputs": [],
      "payable": false,
      "stateMutability": "nonpayable",
      "type": "function"
    },
    {
      "constant": true,
      "inputs": [],
      "name": "getOrderCount",
      "outputs": [
        {
          "internalType": "uint256",
          "name": "",
          "type": "uint256"
        }
      ],
      "payable": false,
      "stateMutability": "view",
      "type": "function"
    },
    {
      "constant": true,
      "inputs": [
        {
          "internalType": "uint256",
          "name": "_id",
          "type": "uint256"
        }
      ],
      "name": "getAllCompletedOrder",
      "outputs": [
        {
          "components": [
            {
              "internalType": "address",
              "name": "add",
              "type": "address"
            },
            {
              "internalType": "uint256",
              "name": "requirement",
              "type": "uint256"
            },
            {
              "internalType": "string",
              "name": "material",
              "type": "string"
            },
            {
              "internalType": "uint256",
              "name": "id",
              "type": "uint256"
            }
          ],
          "internalType": "struct scaleup.buyer[]",
          "name": "",
          "type": "tuple[]"
        }
      ],
      "payable": false,
      "stateMutability": "view",
      "type": "function"
    },
    {
      "constant": true,
      "inputs": [
        {
          "internalType": "string",
          "name": "_material",
          "type": "string"
        },
        {
          "internalType": "uint256",
          "name": "_id",
          "type": "uint256"
        }
      ],
      "name": "getCurrentbuyers",
      "outputs": [
        {
          "components": [
            {
              "internalType": "address",
              "name": "add",
              "type": "address"
            },
            {
              "internalType": "uint256",
              "name": "requirement",
              "type": "uint256"
            },
            {
              "internalType": "string",
              "name": "material",
              "type": "string"
            },
            {
              "internalType": "uint256",
              "name": "id",
              "type": "uint256"
            }
          ],
          "internalType": "struct scaleup.buyer[]",
          "name": "",
          "type": "tuple[]"
        }
      ],
      "payable": false,
      "stateMutability": "view",
      "type": "function"
    }
  ],
  "bytecode": "0x608060405234801561001057600080fd5b50336000806101000a81548173ffffffffffffffffffffffffffffffffffffffff021916908373ffffffffffffffffffffffffffffffffffffffff1602179055506000600681905550611cd8806100686000396000f3fe608060405234801561001057600080fd5b50600436106100885760003560e01c80638c9f75121161005b5780638c9f7512146101135780638d0a5fbb1461014357806392395ea314610161578063ae19611b1461017d57610088565b806303c116b11461008d57806369a1f97c146100bd578063765a521b146100d957806388b922d5146100f7575b600080fd5b6100a760048036036100a29190810190611662565b6101ad565b6040516100b49190611a29565b60405180910390f35b6100d760048036036100d291908101906114e8565b61032b565b005b6100e16106b9565b6040516100ee9190611a07565b60405180910390f35b610111600480360361010c91908101906115fb565b6107a2565b005b61012d600480360361012891908101906114a7565b610c16565b60405161013a9190611a4b565b60405180910390f35b61014b610dff565b6040516101589190611a8d565b60405180910390f35b61017b600480360361017691908101906114a7565b610e09565b005b610197600480360361019291908101906115a7565b610eda565b6040516101a49190611a29565b60405180910390f35b606060056000838152602001908152602001600020805480602002602001604051908101604052809291908181526020016000905b8282101561032057838290600052602060002090600402016040518060800160405290816000820160009054906101000a900473ffffffffffffffffffffffffffffffffffffffff1673ffffffffffffffffffffffffffffffffffffffff1673ffffffffffffffffffffffffffffffffffffffff16815260200160018201548152602001600282018054600181600116156101000203166002900480601f0160208091040260200160405190810160405280929190818152602001828054600181600116156101000203166002900480156102fe5780601f106102d3576101008083540402835291602001916102fe565b820191906000526020600020905b8154815290600101906020018083116102e157829003601f168201915b50505050508152602001600382015481525050815260200190600101906101e2565b505050509050919050565b6000809054906101000a900473ffffffffffffffffffffffffffffffffffffffff1673ffffffffffffffffffffffffffffffffffffffff163373ffffffffffffffffffffffffffffffffffffffff16146103ba576040517f08c379a00000000000000000000000000000000000000000000000000000000081526004016103b190611a6d565b60405180910390fd5b60606003866040516103cc91906119f0565b9081526020016040518091039020805480602002602001604051908101604052809291908181526020016000905b8282101561059857838290600052602060002090600602016040518060c001604052908160008201548152602001600182018054600181600116156101000203166002900480601f0160208091040260200160405190810160405280929190818152602001828054600181600116156101000203166002900480156104c05780601f10610495576101008083540402835291602001916104c0565b820191906000526020600020905b8154815290600101906020018083116104a357829003601f168201915b50505050508152602001600282018054600181600116156101000203166002900480601f0160208091040260200160405190810160405280929190818152602001828054600181600116156101000203166002900480156105625780601f1061053757610100808354040283529160200191610562565b820191906000526020600020905b81548152906001019060200180831161054557829003601f168201915b505050505081526020016003820154815260200160048201548152602001600582015481525050815260200190600101906103fa565b505050509050600080825114156105b257600090506105d4565b6001826001845103815181106105c457fe5b6020026020010151600001510190505b6003876040516105e491906119f0565b90815260200160405180910390206040518060c00160405280838152602001888152602001878152602001868152602001858152602001600081525090806001815401808255809150509060018203906000526020600020906006020160009091929091909150600082015181600001556020820151816001019080519060200190610671929190611075565b50604082015181600201908051906020019061068e929190611075565b50606082015181600301556080820151816004015560a0820151816005015550505050505050505050565b60606001805480602002602001604051908101604052809291908181526020016000905b82821015610799578382906000526020600020018054600181600116156101000203166002900480601f0160208091040260200160405190810160405280929190818152602001828054600181600116156101000203166002900480156107855780601f1061075a57610100808354040283529160200191610785565b820191906000526020600020905b81548152906001019060200180831161076857829003601f168201915b5050505050815260200190600101906106dd565b50505050905090565b60606003846040516107b491906119f0565b9081526020016040518091039020805480602002602001604051908101604052809291908181526020016000905b8282101561098057838290600052602060002090600602016040518060c001604052908160008201548152602001600182018054600181600116156101000203166002900480601f0160208091040260200160405190810160405280929190818152602001828054600181600116156101000203166002900480156108a85780601f1061087d576101008083540402835291602001916108a8565b820191906000526020600020905b81548152906001019060200180831161088b57829003601f168201915b50505050508152602001600282018054600181600116156101000203166002900480601f01602080910402602001604051908101604052809291908181526020018280546001816001161561010002031660029004801561094a5780601f1061091f5761010080835404028352916020019161094a565b820191906000526020600020905b81548152906001019060200180831161092d57829003601f168201915b505050505081526020016003820154815260200160048201548152602001600582015481525050815260200190600101906107e2565b50505050905061098e6110f5565b81848151811061099a57fe5b602002602001015190508060600151838260a001510111156109bb57600080fd5b6109c361112b565b60405180608001604052803373ffffffffffffffffffffffffffffffffffffffff168152602001858152602001878152602001868152509050600486604051610a0c91906119f0565b90815260200160405180910390206000868152602001908152602001600020819080600181540180825580915050906001820390600052602060002090600402016000909192909190915060008201518160000160006101000a81548173ffffffffffffffffffffffffffffffffffffffff021916908373ffffffffffffffffffffffffffffffffffffffff160217905550602082015181600101556040820151816002019080519060200190610ac4929190611075565b50606082015181600301555050508160600151848360a00151011415610bc857600486604051610af491906119f0565b90815260200160405180910390206000868152602001908152602001600020600560006006548152602001908152602001600020908054610b36929190611169565b506001600654016006819055506000600387604051610b5591906119f0565b90815260200160405180910390208681548110610b6e57fe5b9060005260206000209060060201600501819055506002600487604051610b9591906119f0565b90815260200160405180910390206000878152602001908152602001600020908054610bc2929190611169565b50610c0e565b838260a0015101600387604051610bdf91906119f0565b90815260200160405180910390208681548110610bf857fe5b9060005260206000209060060201600501819055505b505050505050565b6060600382604051610c2891906119f0565b9081526020016040518091039020805480602002602001604051908101604052809291908181526020016000905b82821015610df457838290600052602060002090600602016040518060c001604052908160008201548152602001600182018054600181600116156101000203166002900480601f016020809104026020016040519081016040528092919081815260200182805460018160011615610100020316600290048015610d1c5780601f10610cf157610100808354040283529160200191610d1c565b820191906000526020600020905b815481529060010190602001808311610cff57829003601f168201915b50505050508152602001600282018054600181600116156101000203166002900480601f016020809104026020016040519081016040528092919081815260200182805460018160011615610100020316600290048015610dbe5780601f10610d9357610100808354040283529160200191610dbe565b820191906000526020600020905b815481529060010190602001808311610da157829003601f168201915b50505050508152602001600382015481526020016004820154815260200160058201548152505081526020019060010190610c56565b505050509050919050565b6000600654905090565b6000809054906101000a900473ffffffffffffffffffffffffffffffffffffffff1673ffffffffffffffffffffffffffffffffffffffff163373ffffffffffffffffffffffffffffffffffffffff1614610e98576040517f08c379a0000000000000000000000000000000000000000000000000000000008152600401610e8f90611a6d565b60405180910390fd5b6001819080600181540180825580915050906001820390600052602060002001600090919290919091509080519060200190610ed5929190611264565b505050565b6060600483604051610eec91906119f0565b90815260200160405180910390206000838152602001908152602001600020805480602002602001604051908101604052809291908181526020016000905b8282101561106957838290600052602060002090600402016040518060800160405290816000820160009054906101000a900473ffffffffffffffffffffffffffffffffffffffff1673ffffffffffffffffffffffffffffffffffffffff1673ffffffffffffffffffffffffffffffffffffffff16815260200160018201548152602001600282018054600181600116156101000203166002900480601f0160208091040260200160405190810160405280929190818152602001828054600181600116156101000203166002900480156110475780601f1061101c57610100808354040283529160200191611047565b820191906000526020600020905b81548152906001019060200180831161102a57829003601f168201915b5050505050815260200160038201548152505081526020019060010190610f2b565b50505050905092915050565b828054600181600116156101000203166002900490600052602060002090601f016020900481019282601f106110b657805160ff19168380011785556110e4565b828001600101855582156110e4579182015b828111156110e35782518255916020019190600101906110c8565b5b5090506110f191906112e4565b5090565b6040518060c001604052806000815260200160608152602001606081526020016000815260200160008152602001600081525090565b6040518060800160405280600073ffffffffffffffffffffffffffffffffffffffff1681526020016000815260200160608152602001600081525090565b8280548282559060005260206000209060040281019282156112535760005260206000209160040282015b828111156112525782826000820160009054906101000a900473ffffffffffffffffffffffffffffffffffffffff168160000160006101000a81548173ffffffffffffffffffffffffffffffffffffffff021916908373ffffffffffffffffffffffffffffffffffffffff1602179055506001820154816001015560028201816002019080546001816001161561010002031660029004611236929190611309565b5060038201548160030155505091600401919060040190611194565b5b5090506112609190611390565b5090565b828054600181600116156101000203166002900490600052602060002090601f016020900481019282601f106112a557805160ff19168380011785556112d3565b828001600101855582156112d3579182015b828111156112d25782518255916020019190600101906112b7565b5b5090506112e091906112e4565b5090565b61130691905b808211156113025760008160009055506001016112ea565b5090565b90565b828054600181600116156101000203166002900490600052602060002090601f016020900481019282601f10611342578054855561137f565b8280016001018555821561137f57600052602060002091601f016020900482015b8281111561137e578254825591600101919060010190611363565b5b50905061138c91906112e4565b5090565b6113f391905b808211156113ef57600080820160006101000a81549073ffffffffffffffffffffffffffffffffffffffff021916905560018201600090556002820160006113de91906113f6565b600382016000905550600401611396565b5090565b90565b50805460018160011615610100020316600290046000825580601f1061141c575061143b565b601f01602090049060005260206000209081019061143a91906112e4565b5b50565b600082601f83011261144f57600080fd5b813561146261145d82611ad5565b611aa8565b9150808252602083016020830185838301111561147e57600080fd5b611489838284611c2b565b50505092915050565b6000813590506114a181611c7e565b92915050565b6000602082840312156114b957600080fd5b600082013567ffffffffffffffff8111156114d357600080fd5b6114df8482850161143e565b91505092915050565b600080600080600060a0868803121561150057600080fd5b600086013567ffffffffffffffff81111561151a57600080fd5b6115268882890161143e565b955050602086013567ffffffffffffffff81111561154357600080fd5b61154f8882890161143e565b945050604086013567ffffffffffffffff81111561156c57600080fd5b6115788882890161143e565b935050606061158988828901611492565b925050608061159a88828901611492565b9150509295509295909350565b600080604083850312156115ba57600080fd5b600083013567ffffffffffffffff8111156115d457600080fd5b6115e08582860161143e565b92505060206115f185828601611492565b9150509250929050565b60008060006060848603121561161057600080fd5b600084013567ffffffffffffffff81111561162a57600080fd5b6116368682870161143e565b935050602061164786828701611492565b925050604061165886828701611492565b9150509250925092565b60006020828403121561167457600080fd5b600061168284828501611492565b91505092915050565b60006116978383611866565b905092915050565b60006116ab83836118df565b905092915050565b60006116bf8383611942565b905092915050565b6116d081611bef565b82525050565b60006116e182611b31565b6116eb8185611b8f565b9350836020820285016116fd85611b01565b8060005b85811015611739578484038952815161171a858261168b565b945061172583611b68565b925060208a01995050600181019050611701565b50829750879550505050505092915050565b600061175682611b3c565b6117608185611ba0565b93508360208202850161177285611b11565b8060005b858110156117ae578484038952815161178f858261169f565b945061179a83611b75565b925060208a01995050600181019050611776565b50829750879550505050505092915050565b60006117cb82611b47565b6117d58185611bb1565b9350836020820285016117e785611b21565b8060005b85811015611823578484038952815161180485826116b3565b945061180f83611b82565b925060208a019950506001810190506117eb565b50829750879550505050505092915050565b600061184082611b5d565b61184a8185611be4565b935061185a818560208601611c3a565b80840191505092915050565b600061187182611b52565b61187b8185611bc2565b935061188b818560208601611c3a565b61189481611c6d565b840191505092915050565b60006118ac601383611bd3565b91507f596f7520617265206e6f7420616c6c6f776564000000000000000000000000006000830152602082019050919050565b60006080830160008301516118f760008601826116c7565b50602083015161190a60208601826119d2565b50604083015184820360408601526119228282611866565b915050606083015161193760608601826119d2565b508091505092915050565b600060c08301600083015161195a60008601826119d2565b50602083015184820360208601526119728282611866565b9150506040830151848203604086015261198c8282611866565b91505060608301516119a160608601826119d2565b5060808301516119b460808601826119d2565b5060a08301516119c760a08601826119d2565b508091505092915050565b6119db81611c21565b82525050565b6119ea81611c21565b82525050565b60006119fc8284611835565b915081905092915050565b60006020820190508181036000830152611a2181846116d6565b905092915050565b60006020820190508181036000830152611a43818461174b565b905092915050565b60006020820190508181036000830152611a6581846117c0565b905092915050565b60006020820190508181036000830152611a868161189f565b9050919050565b6000602082019050611aa260008301846119e1565b92915050565b6000604051905081810181811067ffffffffffffffff82111715611acb57600080fd5b8060405250919050565b600067ffffffffffffffff821115611aec57600080fd5b601f19601f8301169050602081019050919050565b6000819050602082019050919050565b6000819050602082019050919050565b6000819050602082019050919050565b600081519050919050565b600081519050919050565b600081519050919050565b600081519050919050565b600081519050919050565b6000602082019050919050565b6000602082019050919050565b6000602082019050919050565b600082825260208201905092915050565b600082825260208201905092915050565b600082825260208201905092915050565b600082825260208201905092915050565b600082825260208201905092915050565b600081905092915050565b6000611bfa82611c01565b9050919050565b600073ffffffffffffffffffffffffffffffffffffffff82169050919050565b6000819050919050565b82818337600083830152505050565b60005b83811015611c58578082015181840152602081019050611c3d565b83811115611c67576000848401525b50505050565b6000601f19601f8301169050919050565b611c8781611c21565b8114611c9257600080fd5b5056fea365627a7a723158204544e0e6cf836f927c1ecf01f32425180cc273ff4446037f4e55070a8ff957a36c6578706572696d656e74616cf564736f6c63430005100040",
  "source": "pragma solidity ^0.5.0;\npragma experimental ABIEncoderV2;\n\n\n/**\n* @title cloud\n* @author Abhishek Vispute\n*/\ncontract scaleup {\n \n    address owner;\n    constructor()public{\n        owner = msg.sender;\n        orderCounter =0;\n    }\n    modifier onlyowner\n    {\n         require(msg.sender==owner,\"You are not allowed\");\n         _;\n    }\n    \n  \n \n     string [] material;\n  \n     struct buyer {\n        address add;\n        uint256 requirement;\n        string material;\n        uint256 id;         \n     }\n     struct option {\n      uint256 id;\n      string name;\n      string quality;\n      uint256 quantity;\n      uint256 unitcost;\n      uint256 currentReq;\n     \n    }\n   buyer[] init;\n    mapping(string => option []) material_options;\n    \n    mapping(string => mapping(uint => buyer[] ))  currentBuyers;\n    \n  \n    mapping(uint256 => buyer[]) completedorders;\n  \n    uint256 orderCounter;\n    \n  \n   function addMaterial(string memory _material) onlyowner public \n   {\n    material.push(_material);\n   }\n   \n   function addOption(string memory _material, string memory _name, string memory  _quality, uint256 _quantity, uint256 _unitcost) onlyowner public \n   {\n    option [] memory prevOptions = material_options[_material];\n    uint256 newid;\n    if(prevOptions.length==0)\n    {\n        newid = 0;\n    }\n    else\n    {\n        newid = prevOptions[prevOptions.length-1].id +1;\n    }\n  \n    \n   \n    material_options[_material].push(option({\n        id : newid,\n        name: _name,\n        quality : _quality,\n        quantity : _quantity,\n        unitcost : _unitcost,\n        currentReq : 0\n    }));\n   }\n   \n   function getAllMaterials() public view returns (string [] memory)\n   {\n       return material;\n   }\n   \n   function getOptionsOfMaterial(string memory _material) public view returns (option[] memory)\n   {\n       return material_options[_material];\n   }\n   \n   function placeOrder(string memory _material, uint256 _id, uint256 _req) public\n   {\n     \n       option [] memory t = material_options[_material];\n       option memory requiredopt = t[_id];\n       require(requiredopt.currentReq + _req<= requiredopt.quantity);\n       \n       \n       buyer memory temp = buyer({add : msg.sender, requirement : _req, material :_material, id :_id});\n       currentBuyers[_material][_id].push(temp); \n       \n       if(requiredopt.currentReq + _req == requiredopt.quantity)\n       {\n            completedorders[orderCounter] = currentBuyers[_material][_id];\n            orderCounter = orderCounter +1;\n            material_options[_material][_id].currentReq =0;\n            currentBuyers[_material][_id] = init;\n       }\n       else\n       {\n        material_options[_material][_id].currentReq = requiredopt.currentReq + _req;\n       }\n       \n   }\n   \n   function getOrderCount() public view returns(uint256)\n   {\n       return orderCounter;\n   }\n   function getAllCompletedOrder(uint256 _id) public view returns (buyer[] memory)\n   {\n       return completedorders[_id];\n   }\n   function getCurrentbuyers(string memory _material, uint256 _id) public view returns(buyer [] memory)\n   {\n      return currentBuyers[_material][_id];\n   }\n  \n}",
  "sourcePath": "C:/Users/ASUS/Desktop/ScaleUp/contracts/ScaleUp.sol",
  "compiler": {
    "name": "solc",
    "version": "0.5.16+commit.9c3226ce.Emscripten.clang"
  },
  "schemaVersion": "3.0.22",
  "updatedAt": "2020-08-02T03:25:55.803Z",
  "networkType": "ethereum",
  "devdoc": {
    "author": "Abhishek Vispute",
    "methods": {},
    "title": "cloud"
  },
  "userdoc": {
    "methods": {}
  }
}